{
  "contractName": "Exchange",
  "abi": [
    {
      "inputs": [
        {
          "internalType": "string",
          "name": "_userId",
          "type": "string"
        },
        {
          "internalType": "string",
          "name": "_fromAccount",
          "type": "string"
        },
        {
          "internalType": "string",
          "name": "_toAccount",
          "type": "string"
        },
        {
          "internalType": "uint256",
          "name": "_amountPaid",
          "type": "uint256"
        },
        {
          "internalType": "uint256",
          "name": "_amountDeducted",
          "type": "uint256"
        },
        {
          "internalType": "uint256",
          "name": "_impliedRate",
          "type": "uint256"
        },
        {
          "internalType": "uint256",
          "name": "_marketRate",
          "type": "uint256"
        }
      ],
      "payable": false,
      "stateMutability": "nonpayable",
      "type": "constructor"
    },
    {
      "constant": true,
      "inputs": [],
      "name": "getTxnData",
      "outputs": [
        {
          "internalType": "string",
          "name": "_userId",
          "type": "string"
        },
        {
          "internalType": "string",
          "name": "_fromAccount",
          "type": "string"
        },
        {
          "internalType": "string",
          "name": "_toAccount",
          "type": "string"
        },
        {
          "internalType": "uint256",
          "name": "_amountPaid",
          "type": "uint256"
        },
        {
          "internalType": "uint256",
          "name": "_amountDeducted",
          "type": "uint256"
        },
        {
          "internalType": "uint256",
          "name": "_impliedRate",
          "type": "uint256"
        },
        {
          "internalType": "uint256",
          "name": "_marketRate",
          "type": "uint256"
        }
      ],
      "payable": false,
      "stateMutability": "view",
      "type": "function"
    }
  ],
  "bytecode": "0x608060405234801561001057600080fd5b506040516107b43803806107b4833981810160405260e081101561003357600080fd5b810190808051604051939291908464010000000082111561005357600080fd5b8382019150602082018581111561006957600080fd5b825186600182028301116401000000008211171561008657600080fd5b8083526020830192505050908051906020019080838360005b838110156100ba57808201518184015260208101905061009f565b50505050905090810190601f1680156100e75780820380516001836020036101000a031916815260200191505b506040526020018051604051939291908464010000000082111561010a57600080fd5b8382019150602082018581111561012057600080fd5b825186600182028301116401000000008211171561013d57600080fd5b8083526020830192505050908051906020019080838360005b83811015610171578082015181840152602081019050610156565b50505050905090810190601f16801561019e5780820380516001836020036101000a031916815260200191505b50604052602001805160405193929190846401000000008211156101c157600080fd5b838201915060208201858111156101d757600080fd5b82518660018202830111640100000000821117156101f457600080fd5b8083526020830192505050908051906020019080838360005b8381101561022857808201518184015260208101905061020d565b50505050905090810190601f1680156102555780820380516001836020036101000a031916815260200191505b50604052602001805190602001909291908051906020019092919080519060200190929190805190602001909291905050508660008001908051906020019061029f929190610308565b5085600060010190805190602001906102b9929190610308565b5084600060020190805190602001906102d3929190610308565b5083600060030181905550826000600401819055508160006005018190555080600060060181905550505050505050506103ad565b828054600181600116156101000203166002900490600052602060002090601f016020900481019282601f1061034957805160ff1916838001178555610377565b82800160010185558215610377579182015b8281111561037657825182559160200191906001019061035b565b5b5090506103849190610388565b5090565b6103aa91905b808211156103a657600081600090555060010161038e565b5090565b90565b6103f8806103bc6000396000f3fe608060405234801561001057600080fd5b506004361061002b5760003560e01c8063b66121f714610030575b600080fd5b6100386101a7565b6040518080602001806020018060200188815260200187815260200186815260200185815260200184810384528b818151815260200191508051906020019080838360005b8381101561009857808201518184015260208101905061007d565b50505050905090810190601f1680156100c55780820380516001836020036101000a031916815260200191505b5084810383528a818151815260200191508051906020019080838360005b838110156100fe5780820151818401526020810190506100e3565b50505050905090810190601f16801561012b5780820380516001836020036101000a031916815260200191505b50848103825289818151815260200191508051906020019080838360005b83811015610164578082015181840152602081019050610149565b50505050905090810190601f1680156101915780820380516001836020036101000a031916815260200191505b509a505050505050505050505060405180910390f35b60608060606000806000806000800160006001016000600201600060030154600060040154600060050154600060060154868054600181600116156101000203166002900480601f01602080910402602001604051908101604052809291908181526020018280546001816001161561010002031660029004801561026d5780601f106102425761010080835404028352916020019161026d565b820191906000526020600020905b81548152906001019060200180831161025057829003601f168201915b50505050509650858054600181600116156101000203166002900480601f0160208091040260200160405190810160405280929190818152602001828054600181600116156101000203166002900480156103095780601f106102de57610100808354040283529160200191610309565b820191906000526020600020905b8154815290600101906020018083116102ec57829003601f168201915b50505050509550848054600181600116156101000203166002900480601f0160208091040260200160405190810160405280929190818152602001828054600181600116156101000203166002900480156103a55780601f1061037a576101008083540402835291602001916103a5565b820191906000526020600020905b81548152906001019060200180831161038857829003601f168201915b5050505050945096509650965096509650965096509091929394959656fea265627a7a723158208b91f514a3ee138ef543657e0e1f7033bc3029ab0b4099c76c2a42b2f4eb622364736f6c634300050c0032",
  "source": "pragma solidity^0.5.0;\n//import \"https://github.com/OpenZeppelin/openzeppelin-contracts/contracts/lifecycle/Pausable.sol\";\n//import \"https://github.com/OpenZeppelin/openzeppelin-contracts/contracts/math/SafeMath.sol\";\n//import \"https://github.com/OpenZeppelin/openzeppelin-contracts/contracts/ownership/Ownable.sol\";\n//import \"https://github.com/willitscale/solidity-util/lib/Strings.sol\";\ncontract Exchange {\n//  using SafeMath for uint256;\n//  using Strings for *;\n   struct TxnData {\n   //address txId;\n     string userId;\n     string fromAccount; // from account td\n     string toAccount;  // to account id\n     uint256 amountPaid; // in receiving currency\n     uint256 amountDeducted; // in source currency\n     uint256 impliedRate;\n     uint256 marketRate;\n  }\n  TxnData transaction; // you may call it exchange\n  constructor(string memory _userId, string memory _fromAccount, string memory _toAccount, uint256 _amountPaid, uint256 _amountDeducted, uint256 _impliedRate, uint256 _marketRate)\n  public {\n        transaction.userId = _userId;\n        transaction.fromAccount = _fromAccount;\n        transaction.toAccount = _toAccount;\n        transaction.amountPaid = _amountPaid;\n        transaction.amountDeducted = _amountDeducted;\n        transaction.impliedRate = _impliedRate;\n        transaction.marketRate = _marketRate;\n    }\n  function getTxnData() view public returns (\n        string memory _userId, string memory _fromAccount, string memory _toAccount,\n        uint256 _amountPaid, uint256 _amountDeducted, uint256 _impliedRate,\n        uint256 _marketRate) {\n        return (transaction.userId, transaction.fromAccount, transaction.toAccount,\n                transaction.amountPaid, transaction.amountDeducted, transaction.impliedRate,\n                transaction.marketRate);\n    }\n}\n\n\n\n\n\n\n",
  "sourcePath": "/home/dinshaw/Forex/contracts/Exchange.sol",
  "compiler": {
    "name": "solc",
    "version": "0.5.12+commit.7709ece9.Emscripten.clang"
  },
  "schemaVersion": "3.0.19",
  "updatedAt": "2019-11-28T10:03:01.988Z",
  "devdoc": {
    "methods": {}
  },
  "userdoc": {
    "methods": {}
  }
}