{
  "contractName": "ForexBook",
  "abi": [
    {
      "inputs": [],
      "payable": false,
      "stateMutability": "nonpayable",
      "type": "constructor"
    },
    {
      "anonymous": false,
      "inputs": [
        {
          "indexed": false,
          "internalType": "string",
          "name": "",
          "type": "string"
        },
        {
          "indexed": false,
          "internalType": "string",
          "name": "",
          "type": "string"
        },
        {
          "indexed": false,
          "internalType": "string",
          "name": "",
          "type": "string"
        }
      ],
      "name": "accountGenerated",
      "type": "event"
    },
    {
      "anonymous": false,
      "inputs": [
        {
          "indexed": false,
          "internalType": "string",
          "name": "",
          "type": "string"
        },
        {
          "indexed": false,
          "internalType": "string",
          "name": "",
          "type": "string"
        },
        {
          "indexed": false,
          "internalType": "uint256",
          "name": "",
          "type": "uint256"
        }
      ],
      "name": "depositFunds",
      "type": "event"
    },
    {
      "anonymous": false,
      "inputs": [
        {
          "indexed": false,
          "internalType": "string",
          "name": "",
          "type": "string"
        },
        {
          "indexed": false,
          "internalType": "string",
          "name": "",
          "type": "string"
        },
        {
          "indexed": false,
          "internalType": "string",
          "name": "",
          "type": "string"
        },
        {
          "indexed": false,
          "internalType": "uint256",
          "name": "",
          "type": "uint256"
        },
        {
          "indexed": false,
          "internalType": "uint256",
          "name": "",
          "type": "uint256"
        },
        {
          "indexed": false,
          "internalType": "uint256",
          "name": "",
          "type": "uint256"
        },
        {
          "indexed": false,
          "internalType": "uint256",
          "name": "",
          "type": "uint256"
        }
      ],
      "name": "paidInAnotherCurrency",
      "type": "event"
    },
    {
      "anonymous": false,
      "inputs": [
        {
          "indexed": false,
          "internalType": "string",
          "name": "",
          "type": "string"
        }
      ],
      "name": "userCreated",
      "type": "event"
    },
    {
      "anonymous": false,
      "inputs": [
        {
          "indexed": false,
          "internalType": "string",
          "name": "",
          "type": "string"
        },
        {
          "indexed": false,
          "internalType": "string",
          "name": "",
          "type": "string"
        },
        {
          "indexed": false,
          "internalType": "uint256",
          "name": "",
          "type": "uint256"
        }
      ],
      "name": "withdrawFunds",
      "type": "event"
    },
    {
      "constant": true,
      "inputs": [
        {
          "internalType": "string",
          "name": "",
          "type": "string"
        }
      ],
      "name": "balances",
      "outputs": [
        {
          "internalType": "uint256",
          "name": "",
          "type": "uint256"
        }
      ],
      "payable": false,
      "stateMutability": "view",
      "type": "function"
    },
    {
      "constant": true,
      "inputs": [
        {
          "internalType": "uint256",
          "name": "",
          "type": "uint256"
        }
      ],
      "name": "exchanges",
      "outputs": [
        {
          "internalType": "address",
          "name": "",
          "type": "address"
        }
      ],
      "payable": false,
      "stateMutability": "view",
      "type": "function"
    },
    {
      "constant": false,
      "inputs": [
        {
          "internalType": "string",
          "name": "userId",
          "type": "string"
        }
      ],
      "name": "createUser",
      "outputs": [
        {
          "internalType": "bool",
          "name": "",
          "type": "bool"
        }
      ],
      "payable": false,
      "stateMutability": "nonpayable",
      "type": "function"
    },
    {
      "constant": false,
      "inputs": [
        {
          "internalType": "string",
          "name": "userId",
          "type": "string"
        },
        {
          "internalType": "string",
          "name": "currency",
          "type": "string"
        },
        {
          "internalType": "string",
          "name": "accountId",
          "type": "string"
        }
      ],
      "name": "addAccount",
      "outputs": [
        {
          "internalType": "bool",
          "name": "",
          "type": "bool"
        }
      ],
      "payable": false,
      "stateMutability": "nonpayable",
      "type": "function"
    },
    {
      "constant": false,
      "inputs": [
        {
          "internalType": "string",
          "name": "userId",
          "type": "string"
        },
        {
          "internalType": "string",
          "name": "accountId",
          "type": "string"
        },
        {
          "internalType": "uint256",
          "name": "amount",
          "type": "uint256"
        }
      ],
      "name": "depoSit",
      "outputs": [
        {
          "internalType": "bool",
          "name": "",
          "type": "bool"
        }
      ],
      "payable": false,
      "stateMutability": "nonpayable",
      "type": "function"
    },
    {
      "constant": false,
      "inputs": [
        {
          "internalType": "string",
          "name": "userId",
          "type": "string"
        },
        {
          "internalType": "string",
          "name": "accountId",
          "type": "string"
        },
        {
          "internalType": "uint256",
          "name": "amount",
          "type": "uint256"
        }
      ],
      "name": "withdraw",
      "outputs": [
        {
          "internalType": "bool",
          "name": "",
          "type": "bool"
        }
      ],
      "payable": false,
      "stateMutability": "nonpayable",
      "type": "function"
    },
    {
      "constant": false,
      "inputs": [
        {
          "internalType": "string",
          "name": "userId",
          "type": "string"
        },
        {
          "internalType": "string",
          "name": "fromAccount",
          "type": "string"
        },
        {
          "internalType": "string",
          "name": "toAccount",
          "type": "string"
        },
        {
          "internalType": "uint256",
          "name": "amountPaid",
          "type": "uint256"
        },
        {
          "internalType": "uint256",
          "name": "amountDeducted",
          "type": "uint256"
        },
        {
          "internalType": "uint256",
          "name": "impliedRate",
          "type": "uint256"
        },
        {
          "internalType": "uint256",
          "name": "marketRate",
          "type": "uint256"
        }
      ],
      "name": "payTo",
      "outputs": [
        {
          "internalType": "address",
          "name": "",
          "type": "address"
        }
      ],
      "payable": true,
      "stateMutability": "payable",
      "type": "function"
    },
    {
      "constant": true,
      "inputs": [],
      "name": "getAllExchanges",
      "outputs": [
        {
          "internalType": "address[]",
          "name": "",
          "type": "address[]"
        }
      ],
      "payable": false,
      "stateMutability": "view",
      "type": "function"
    }
  ],
  "bytecode": "0x608060405234801561001057600080fd5b5061207d806100206000396000f3fe608060405260043610620000865760003560e01c8063507ffba51162000055578063507ffba514620003e95780636c54275d14620004d0578063ba73b818146200072d578063bb346fe314620008b85762000086565b806314676a6f146200008b5780632839fc2914620002165780632afd97a4146200029557806337c03fb61462000378575b600080fd5b3480156200009857600080fd5b50620001fc60048036036060811015620000b157600080fd5b8101908080359060200190640100000000811115620000cf57600080fd5b820183602082011115620000e257600080fd5b803590602001918460018302840111640100000000831117156200010557600080fd5b91908080601f016020809104026020016040519081016040528093929190818152602001838380828437600081840152601f19601f820116905080830192505050505050509192919290803590602001906401000000008111156200016957600080fd5b8201836020820111156200017c57600080fd5b803590602001918460018302840111640100000000831117156200019f57600080fd5b91908080601f016020809104026020016040519081016040528093929190818152602001838380828437600081840152601f19601f8201169050808301925050505050505091929192908035906020019092919050505062000ad3565b604051808215151515815260200191505060405180910390f35b3480156200022357600080fd5b5062000253600480360360208110156200023c57600080fd5b810190808035906020019092919050505062000cd4565b604051808273ffffffffffffffffffffffffffffffffffffffff1673ffffffffffffffffffffffffffffffffffffffff16815260200191505060405180910390f35b348015620002a257600080fd5b506200036260048036036020811015620002bb57600080fd5b8101908080359060200190640100000000811115620002d957600080fd5b820183602082011115620002ec57600080fd5b803590602001918460018302840111640100000000831117156200030f57600080fd5b91908080601f016020809104026020016040519081016040528093929190818152602001838380828437600081840152601f19601f82011690508083019250505050505050919291929050505062000d11565b6040518082815260200191505060405180910390f35b3480156200038557600080fd5b506200039062000d3f565b6040518080602001828103825283818151815260200191508051906020019060200280838360005b83811015620003d5578082015181840152602081019050620003b8565b505050509050019250505060405180910390f35b348015620003f657600080fd5b50620004b6600480360360208110156200040f57600080fd5b81019080803590602001906401000000008111156200042d57600080fd5b8201836020820111156200044057600080fd5b803590602001918460018302840111640100000000831117156200046357600080fd5b91908080601f016020809104026020016040519081016040528093929190818152602001838380828437600081840152601f19601f82011690508083019250505050505050919291929050505062000dcf565b604051808215151515815260200191505060405180910390f35b620006eb600480360360e0811015620004e857600080fd5b81019080803590602001906401000000008111156200050657600080fd5b8201836020820111156200051957600080fd5b803590602001918460018302840111640100000000831117156200053c57600080fd5b91908080601f016020809104026020016040519081016040528093929190818152602001838380828437600081840152601f19601f82011690508083019250505050505050919291929080359060200190640100000000811115620005a057600080fd5b820183602082011115620005b357600080fd5b80359060200191846001830284011164010000000083111715620005d657600080fd5b91908080601f016020809104026020016040519081016040528093929190818152602001838380828437600081840152601f19601f820116905080830192505050505050509192919290803590602001906401000000008111156200063a57600080fd5b8201836020820111156200064d57600080fd5b803590602001918460018302840111640100000000831117156200067057600080fd5b91908080601f016020809104026020016040519081016040528093929190818152602001838380828437600081840152601f19601f8201169050808301925050505050505091929192908035906020019092919080359060200190929190803590602001909291908035906020019092919050505062000eb9565b604051808273ffffffffffffffffffffffffffffffffffffffff1673ffffffffffffffffffffffffffffffffffffffff16815260200191505060405180910390f35b3480156200073a57600080fd5b506200089e600480360360608110156200075357600080fd5b81019080803590602001906401000000008111156200077157600080fd5b8201836020820111156200078457600080fd5b80359060200191846001830284011164010000000083111715620007a757600080fd5b91908080601f016020809104026020016040519081016040528093929190818152602001838380828437600081840152601f19601f820116905080830192505050505050509192919290803590602001906401000000008111156200080b57600080fd5b8201836020820111156200081e57600080fd5b803590602001918460018302840111640100000000831117156200084157600080fd5b91908080601f016020809104026020016040519081016040528093929190818152602001838380828437600081840152601f19601f8201169050808301925050505050505091929192908035906020019092919050505062001271565b604051808215151515815260200191505060405180910390f35b348015620008c557600080fd5b5062000ab960048036036060811015620008de57600080fd5b8101908080359060200190640100000000811115620008fc57600080fd5b8201836020820111156200090f57600080fd5b803590602001918460018302840111640100000000831117156200093257600080fd5b91908080601f016020809104026020016040519081016040528093929190818152602001838380828437600081840152601f19601f820116905080830192505050505050509192919290803590602001906401000000008111156200099657600080fd5b820183602082011115620009a957600080fd5b80359060200191846001830284011164010000000083111715620009cc57600080fd5b91908080601f016020809104026020016040519081016040528093929190818152602001838380828437600081840152601f19601f8201169050808301925050505050505091929192908035906020019064010000000081111562000a3057600080fd5b82018360208201111562000a4357600080fd5b8035906020019184600183028401116401000000008311171562000a6657600080fd5b91908080601f016020809104026020016040519081016040528093929190818152602001838380828437600081840152601f19601f82011690508083019250505050505050919291929050505062001559565b604051808215151515815260200191505060405180910390f35b6000816002846040518082805190602001908083835b6020831062000b0e578051825260208201915060208101905060208303925062000ae9565b6001836020036101000a038019825116818451168082178552505050505050905001915050908152602001604051809103902054016002846040518082805190602001908083835b6020831062000b7b578051825260208201915060208101905060208303925062000b56565b6001836020036101000a0380198251168184511680821785525050505050509050019150509081526020016040518091039020819055507f1b84c69ed5a1ab7ce505668975c5952151d6a448c7be626864442357aac87da9848484604051808060200180602001848152602001838103835286818151815260200191508051906020019080838360005b8381101562000c2257808201518184015260208101905062000c05565b50505050905090810190601f16801562000c505780820380516001836020036101000a031916815260200191505b50838103825285818151815260200191508051906020019080838360005b8381101562000c8b57808201518184015260208101905062000c6e565b50505050905090810190601f16801562000cb95780820380516001836020036101000a031916815260200191505b509550505050505060405180910390a1600190509392505050565b6001818154811062000ce257fe5b906000526020600020016000915054906101000a900473ffffffffffffffffffffffffffffffffffffffff1681565b6002818051602081018201805184825260208301602085012081835280955050505050506000915090505481565b6060600180548060200260200160405190810160405280929190818152602001828054801562000dc557602002820191906000526020600020905b8160009054906101000a900473ffffffffffffffffffffffffffffffffffffffff1673ffffffffffffffffffffffffffffffffffffffff168152602001906001019080831162000d7a575b5050505050905090565b60008082908060018154018082558091505090600182039060005260206000200160009091929091909150908051906020019062000e0f929190620017d7565b50507f6c266022d98427da88464399d212927d5c4a1ecb555cee32781d5c9e06555097826040518080602001828103825283818151815260200191508051906020019080838360005b8381101562000e7557808201518184015260208101905062000e58565b50505050905090810190601f16801562000ea35780820380516001836020036101000a031916815260200191505b509250505060405180910390a160019050919050565b6000808888888888888860405162000ed1906200185e565b8080602001806020018060200188815260200187815260200186815260200185815260200184810384528b818151815260200191508051906020019080838360005b8381101562000f3057808201518184015260208101905062000f13565b50505050905090810190601f16801562000f5e5780820380516001836020036101000a031916815260200191505b5084810383528a818151815260200191508051906020019080838360005b8381101562000f9957808201518184015260208101905062000f7c565b50505050905090810190601f16801562000fc75780820380516001836020036101000a031916815260200191505b50848103825289818151815260200191508051906020019080838360005b838110156200100257808201518184015260208101905062000fe5565b50505050905090810190601f168015620010305780820380516001836020036101000a031916815260200191505b509a5050505050505050505050604051809103906000f0801580156200105a573d6000803e3d6000fd5b50905060018190806001815401808255809150509060018203906000526020600020016000909192909190916101000a81548173ffffffffffffffffffffffffffffffffffffffff021916908373ffffffffffffffffffffffffffffffffffffffff160217905550507f74a860e4abc491ea01a3795a5c5931ba23d35dc08c416ddee9ffd0388ab03e22898989898989896040518080602001806020018060200188815260200187815260200186815260200185815260200184810384528b818151815260200191508051906020019080838360005b838110156200114d57808201518184015260208101905062001130565b50505050905090810190601f1680156200117b5780820380516001836020036101000a031916815260200191505b5084810383528a818151815260200191508051906020019080838360005b83811015620011b657808201518184015260208101905062001199565b50505050905090810190601f168015620011e45780820380516001836020036101000a031916815260200191505b50848103825289818151815260200191508051906020019080838360005b838110156200121f57808201518184015260208101905062001202565b50505050905090810190601f1680156200124d5780820380516001836020036101000a031916815260200191505b509a505050505050505050505060405180910390a180915050979650505050505050565b6000806002846040518082805190602001908083835b60208310620012ac578051825260208201915060208101905060208303925062001287565b6001836020036101000a03801982511681845116808217855250505050505090500191505090815260200160405180910390205490508281101562001359576040517f08c379a00000000000000000000000000000000000000000000000000000000081526004018080602001828103825260138152602001807f496e7375666669656369656e742066756e64730000000000000000000000000081525060200191505060405180910390fd5b826002856040518082805190602001908083835b602083106200139257805182526020820191506020810190506020830392506200136d565b6001836020036101000a038019825116818451168082178552505050505050905001915050908152602001604051809103902054036002856040518082805190602001908083835b60208310620013ff5780518252602082019150602081019050602083039250620013da565b6001836020036101000a0380198251168184511680821785525050505050509050019150509081526020016040518091039020819055507ff8bbc4258c5fe1fbfe209aa5872171eb1e2b26517eb51a4c0f4de08468ba9a77858585604051808060200180602001848152602001838103835286818151815260200191508051906020019080838360005b83811015620014a657808201518184015260208101905062001489565b50505050905090810190601f168015620014d45780820380516001836020036101000a031916815260200191505b50838103825285818151815260200191508051906020019080838360005b838110156200150f578082015181840152602081019050620014f2565b50505050905090810190601f1680156200153d5780820380516001836020036101000a031916815260200191505b509550505050505060405180910390a160019150509392505050565b6000806002836040518082805190602001908083835b602083106200159457805182526020820191506020810190506020830392506200156f565b6001836020036101000a038019825116818451168082178552505050505050905001915050908152602001604051809103902081905550826003836040518082805190602001908083835b60208310620016045780518252602082019150602081019050602083039250620015df565b6001836020036101000a038019825116818451168082178552505050505050905001915050908152602001604051809103902090805190602001906200164c929190620017d7565b507fa24c931796921efc4c1f26fcd34e9df65c10823452449de0f547896e41728c1d84838560405180806020018060200180602001848103845287818151815260200191508051906020019080838360005b83811015620016bb5780820151818401526020810190506200169e565b50505050905090810190601f168015620016e95780820380516001836020036101000a031916815260200191505b50848103835286818151815260200191508051906020019080838360005b838110156200172457808201518184015260208101905062001707565b50505050905090810190601f168015620017525780820380516001836020036101000a031916815260200191505b50848103825285818151815260200191508051906020019080838360005b838110156200178d57808201518184015260208101905062001770565b50505050905090810190601f168015620017bb5780820380516001836020036101000a031916815260200191505b50965050505050505060405180910390a1600190509392505050565b828054600181600116156101000203166002900490600052602060002090601f016020900481019282601f106200181a57805160ff19168380011785556200184b565b828001600101855582156200184b579182015b828111156200184a5782518255916020019190600101906200182d565b5b5090506200185a91906200186c565b5090565b6107b4806200189583390190565b6200189191905b808211156200188d57600081600090555060010162001873565b5090565b9056fe608060405234801561001057600080fd5b506040516107b43803806107b4833981810160405260e081101561003357600080fd5b810190808051604051939291908464010000000082111561005357600080fd5b8382019150602082018581111561006957600080fd5b825186600182028301116401000000008211171561008657600080fd5b8083526020830192505050908051906020019080838360005b838110156100ba57808201518184015260208101905061009f565b50505050905090810190601f1680156100e75780820380516001836020036101000a031916815260200191505b506040526020018051604051939291908464010000000082111561010a57600080fd5b8382019150602082018581111561012057600080fd5b825186600182028301116401000000008211171561013d57600080fd5b8083526020830192505050908051906020019080838360005b83811015610171578082015181840152602081019050610156565b50505050905090810190601f16801561019e5780820380516001836020036101000a031916815260200191505b50604052602001805160405193929190846401000000008211156101c157600080fd5b838201915060208201858111156101d757600080fd5b82518660018202830111640100000000821117156101f457600080fd5b8083526020830192505050908051906020019080838360005b8381101561022857808201518184015260208101905061020d565b50505050905090810190601f1680156102555780820380516001836020036101000a031916815260200191505b50604052602001805190602001909291908051906020019092919080519060200190929190805190602001909291905050508660008001908051906020019061029f929190610308565b5085600060010190805190602001906102b9929190610308565b5084600060020190805190602001906102d3929190610308565b5083600060030181905550826000600401819055508160006005018190555080600060060181905550505050505050506103ad565b828054600181600116156101000203166002900490600052602060002090601f016020900481019282601f1061034957805160ff1916838001178555610377565b82800160010185558215610377579182015b8281111561037657825182559160200191906001019061035b565b5b5090506103849190610388565b5090565b6103aa91905b808211156103a657600081600090555060010161038e565b5090565b90565b6103f8806103bc6000396000f3fe608060405234801561001057600080fd5b506004361061002b5760003560e01c8063b66121f714610030575b600080fd5b6100386101a7565b6040518080602001806020018060200188815260200187815260200186815260200185815260200184810384528b818151815260200191508051906020019080838360005b8381101561009857808201518184015260208101905061007d565b50505050905090810190601f1680156100c55780820380516001836020036101000a031916815260200191505b5084810383528a818151815260200191508051906020019080838360005b838110156100fe5780820151818401526020810190506100e3565b50505050905090810190601f16801561012b5780820380516001836020036101000a031916815260200191505b50848103825289818151815260200191508051906020019080838360005b83811015610164578082015181840152602081019050610149565b50505050905090810190601f1680156101915780820380516001836020036101000a031916815260200191505b509a505050505050505050505060405180910390f35b60608060606000806000806000800160006001016000600201600060030154600060040154600060050154600060060154868054600181600116156101000203166002900480601f01602080910402602001604051908101604052809291908181526020018280546001816001161561010002031660029004801561026d5780601f106102425761010080835404028352916020019161026d565b820191906000526020600020905b81548152906001019060200180831161025057829003601f168201915b50505050509650858054600181600116156101000203166002900480601f0160208091040260200160405190810160405280929190818152602001828054600181600116156101000203166002900480156103095780601f106102de57610100808354040283529160200191610309565b820191906000526020600020905b8154815290600101906020018083116102ec57829003601f168201915b50505050509550848054600181600116156101000203166002900480601f0160208091040260200160405190810160405280929190818152602001828054600181600116156101000203166002900480156103a55780601f1061037a576101008083540402835291602001916103a5565b820191906000526020600020905b81548152906001019060200180831161038857829003601f168201915b5050505050945096509650965096509650965096509091929394959656fea265627a7a723158208b91f514a3ee138ef543657e0e1f7033bc3029ab0b4099c76c2a42b2f4eb622364736f6c634300050c0032a265627a7a72315820e59920efcd96399f24115ba376ee535a918f22f2b7024e2fca4d84eea8b01db664736f6c634300050c0032",
  "source": " pragma solidity^0.5.0;\n//pragma experimental ABIEncoderV2;\n\n//import \"https://github.com/OpenZeppelin/openzeppelin-contracts/contracts/lifecycle/Pausable.sol\";\n//import \"https://github.com/OpenZeppelin/openzeppelin-contracts/contracts/math/SafeMath.sol\";\n//import \"https://github.com/OpenZeppelin/openzeppelin-contracts/contracts/ownership/Ownable.sol\";\n//import \"https://github.com/willitscale/solidity-util/lib/Strings.sol\";\n\nimport \"./Exchange.sol\";\n\ncontract ForexBook {\n\n // using SafeMath for uint256;\n // using Strings for *;\n\n  //data structures & mappings\n\n  string[] users;\n\n  address[] public exchanges; // all payTo transactions go here\n  /* struct txnData {\n     address txId;\n     bytes32 fromAccount; // from account td\n     bytes32 toAccount;  // to account id\n     uint256 amountPaid; // in receiving currency\n     uint256 amountDeducted; // in source currency\n     uint256 impliedRate;\n     uint256 marketRate;\n  } */\n\n  mapping (string => uint256) public balances; // maintain balance for each account id\n\n  struct accountStruct{\n    string[] accounts;\n  }\n\n  mapping (string => string) accountType;\n\n  mapping (string => accountStruct) userAccounts; // one to many mapping between userId & their accounts\n\n  constructor() public {\n  }\n\n  // Events\n  event userCreated(string);\n  event accountGenerated(string, string, string);\n  event depositFunds(string, string, uint256);\n  event withdrawFunds(string, string, uint256);\n  event paidInAnotherCurrency(string, string, string, uint256, uint256, uint256, uint256); // log attributes\n\n  /*function getAccounts(string memory userId) public returns(string [] memory){\n   return userAccounts[userId].accounts;\n  }*/\n\n  /* functions */\n  // 1. create user\n  /* generates user id takes user basic details\n     random string generation could be done in UI\n     do we need to store user basic details in contract?*/\n  /* function createUser(string name, string addr, string country) public returns(string){\n      public string id;\n      id = name.toSlice().concat(addr.toSlice()).concat(country.toSlice());\n      return id;\n  } */\n     // Anurag can generate this random string by web3 toHex, toHash method\n\n     function createUser(string memory userId) public returns(bool){\n         // require conditions if any\n         users.push(userId);\n         emit userCreated(userId);\n         return true;\n\n     }\n  // 2. add account\n  /* inputs: userId, currency\n     create accountId\n     update userAccounts mapping for user\n     initializes account with balance*/\n     function addAccount(string memory userId, string memory currency, string memory accountId) public returns(bool){\n         // assuming accountId is already generated in UI\n         //userAccounts[userId].accounts.push(accountId);\n         // should require user id to have created\n         balances[accountId] = 0;\n         accountType[accountId] = currency;\n         emit accountGenerated(userId, accountId, currency);\n         return true;\n     }\n  // 3. Deposit\n     function depoSit(string memory userId, string memory accountId, uint256 amount) public returns(bool){\n         balances[accountId] = balances[accountId] + amount;\n         emit depositFunds(userId, accountId, amount);\n         return true;\n     }\n  // 4. Withdraw\n     function withdraw(string memory userId, string memory accountId, uint256 amount) public returns(bool){\n         uint256 bal = balances[accountId];\n         require(bal >= amount, \"Insuffiecient funds\");\n         balances[accountId] = balances[accountId] - amount;\n         emit withdrawFunds(userId, accountId, amount);\n         return true;\n     }\n  // 5. payTo\n     // should userId also be part of transaction data?\n     function payTo(string memory userId, string memory fromAccount, string memory toAccount, uint256 amountPaid, uint256 amountDeducted, uint256 impliedRate, uint256 marketRate)\n     public payable returns(address) {\n         // check any reuirements\n         Exchange exchangeContract = new Exchange(userId, fromAccount, toAccount, amountPaid, amountDeducted, impliedRate, marketRate);\n         exchanges.push(address(exchangeContract));\n         emit paidInAnotherCurrency(userId, fromAccount, toAccount, amountPaid, amountDeducted, impliedRate, marketRate);\n         return address(exchangeContract);\n     }\n  // 6. getDatabyUserId\n    /* for this we get all exchanges / transactions and filter in using userID in the UI */\n  // 7. getDatabytxnId\n    /* essentially getAllExchanges() */\n  // 8. getDatabyaccountId\n    /* for this we get all exchanges / transactions and filter in using fromAccount & toAccount in the UI */\n  // 9. getAllTransactions / payments / exchanges\n     function getAllExchanges() public view returns(address[] memory) {\n       return exchanges;\n      }\n} \n",
  "sourcePath": "/home/dinshaw/Forex/contracts/ForexBook.sol",
  "compiler": {
    "name": "solc",
    "version": "0.5.12+commit.7709ece9.Emscripten.clang"
  },
  "schemaVersion": "3.0.19",
  "updatedAt": "2019-11-28T10:03:01.991Z",
  "devdoc": {
    "methods": {}
  },
  "userdoc": {
    "methods": {}
  }
}